:100000000C9434000C9440000C943E000C943E0080
:100010000C943E000C943E000C943E000C943E0068
:100020000C943E000C943E000C943E000C943E0058
:100030000C943E000C943E000C943E000C94500036
:100040000C943E000C943E000C943E000C943E0038
:100050000C943E000C943E000C943E000C943E0028
:100060000C943E000C943E0011241FBECFEFD8E04C
:10007000DEBFCDBF0E9460000C947D000C94000098
:100080001F920F920FB60F9211248F9316BC85B555
:10009000806885BD8F910F900FBE0F901F901895AF
:1000A0001F920F920FB60F9211248F938BB180582D
:1000B0008BB989B18F910F900FBE0F901F9018953B
:1000C0005298E89AE9E6F0E08081816080838AB105
:1000D000806C8AB984B5826084BD85B5836085BD36
:1000E00080ED87BD88E688BDEEE6F0E08081846023
:0E00F0008083789480E090E00895F894FFCF2C
:00000001FF
